{
  "_format": "hh-sol-artifact-1",
  "contractName": "Campaign",
  "sourceName": "contracts/donation.sol",
  "abi": [
    {
      "inputs": [
        {
          "internalType": "address",
          "name": "creator",
          "type": "address"
        },
        {
          "internalType": "string",
          "name": "campaignName",
          "type": "string"
        },
        {
          "internalType": "address",
          "name": "receiverAddress",
          "type": "address"
        },
        {
          "internalType": "uint256",
          "name": "campaignGoal",
          "type": "uint256"
        },
        {
          "internalType": "string",
          "name": "campaignEndDate",
          "type": "string"
        }
      ],
      "stateMutability": "nonpayable",
      "type": "constructor"
    },
    {
      "inputs": [],
      "name": "description",
      "outputs": [
        {
          "internalType": "address",
          "name": "",
          "type": "address"
        }
      ],
      "stateMutability": "view",
      "type": "function"
    },
    {
      "inputs": [],
      "name": "donate",
      "outputs": [],
      "stateMutability": "payable",
      "type": "function"
    },
    {
      "inputs": [
        {
          "internalType": "address",
          "name": "",
          "type": "address"
        },
        {
          "internalType": "uint256",
          "name": "",
          "type": "uint256"
        }
      ],
      "name": "donationHistory",
      "outputs": [
        {
          "internalType": "address",
          "name": "donor",
          "type": "address"
        },
        {
          "internalType": "uint256",
          "name": "amount",
          "type": "uint256"
        },
        {
          "internalType": "uint256",
          "name": "timestamp",
          "type": "uint256"
        }
      ],
      "stateMutability": "view",
      "type": "function"
    },
    {
      "inputs": [
        {
          "internalType": "uint256",
          "name": "",
          "type": "uint256"
        }
      ],
      "name": "donors",
      "outputs": [
        {
          "internalType": "address",
          "name": "",
          "type": "address"
        }
      ],
      "stateMutability": "view",
      "type": "function"
    },
    {
      "inputs": [],
      "name": "endDate",
      "outputs": [
        {
          "internalType": "string",
          "name": "",
          "type": "string"
        }
      ],
      "stateMutability": "view",
      "type": "function"
    },
    {
      "inputs": [],
      "name": "getDate",
      "outputs": [
        {
          "internalType": "string",
          "name": "",
          "type": "string"
        }
      ],
      "stateMutability": "view",
      "type": "function"
    },
    {
      "inputs": [
        {
          "internalType": "uint256",
          "name": "index",
          "type": "uint256"
        }
      ],
      "name": "getDonorAtIndex",
      "outputs": [
        {
          "internalType": "address",
          "name": "",
          "type": "address"
        }
      ],
      "stateMutability": "view",
      "type": "function"
    },
    {
      "inputs": [],
      "name": "getDonorsCount",
      "outputs": [
        {
          "internalType": "uint256",
          "name": "",
          "type": "uint256"
        }
      ],
      "stateMutability": "view",
      "type": "function"
    },
    {
      "inputs": [],
      "name": "getGoal",
      "outputs": [
        {
          "internalType": "uint256",
          "name": "",
          "type": "uint256"
        }
      ],
      "stateMutability": "view",
      "type": "function"
    },
    {
      "inputs": [],
      "name": "getTotal",
      "outputs": [
        {
          "internalType": "uint256",
          "name": "",
          "type": "uint256"
        }
      ],
      "stateMutability": "view",
      "type": "function"
    },
    {
      "inputs": [
        {
          "internalType": "address",
          "name": "user",
          "type": "address"
        }
      ],
      "name": "getTransactionHistory",
      "outputs": [
        {
          "internalType": "address[]",
          "name": "",
          "type": "address[]"
        },
        {
          "internalType": "uint256[]",
          "name": "",
          "type": "uint256[]"
        },
        {
          "internalType": "address[]",
          "name": "",
          "type": "address[]"
        }
      ],
      "stateMutability": "view",
      "type": "function"
    },
    {
      "inputs": [],
      "name": "goalAmount",
      "outputs": [
        {
          "internalType": "uint256",
          "name": "",
          "type": "uint256"
        }
      ],
      "stateMutability": "view",
      "type": "function"
    },
    {
      "inputs": [],
      "name": "manager",
      "outputs": [
        {
          "internalType": "address",
          "name": "",
          "type": "address"
        }
      ],
      "stateMutability": "view",
      "type": "function"
    },
    {
      "inputs": [],
      "name": "name",
      "outputs": [
        {
          "internalType": "string",
          "name": "",
          "type": "string"
        }
      ],
      "stateMutability": "view",
      "type": "function"
    },
    {
      "inputs": [],
      "name": "totalDonations",
      "outputs": [
        {
          "internalType": "uint256",
          "name": "",
          "type": "uint256"
        }
      ],
      "stateMutability": "view",
      "type": "function"
    }
  ],
  "bytecode": "0x60806040523480156200001157600080fd5b5060405162001a9538038062001a95833981810160405281019062000037919062000321565b846000806101000a81548173ffffffffffffffffffffffffffffffffffffffff021916908373ffffffffffffffffffffffffffffffffffffffff160217905550836001908162000088919062000628565b5082600260006101000a81548173ffffffffffffffffffffffffffffffffffffffff021916908373ffffffffffffffffffffffffffffffffffffffff160217905550816003819055508060049081620000e2919062000628565b5050505050506200070f565b6000604051905090565b600080fd5b600080fd5b600073ffffffffffffffffffffffffffffffffffffffff82169050919050565b60006200012f8262000102565b9050919050565b620001418162000122565b81146200014d57600080fd5b50565b600081519050620001618162000136565b92915050565b600080fd5b600080fd5b6000601f19601f8301169050919050565b7f4e487b7100000000000000000000000000000000000000000000000000000000600052604160045260246000fd5b620001bc8262000171565b810181811067ffffffffffffffff82111715620001de57620001dd62000182565b5b80604052505050565b6000620001f3620000ee565b9050620002018282620001b1565b919050565b600067ffffffffffffffff82111562000224576200022362000182565b5b6200022f8262000171565b9050602081019050919050565b60005b838110156200025c5780820151818401526020810190506200023f565b60008484015250505050565b60006200027f620002798462000206565b620001e7565b9050828152602081018484840111156200029e576200029d6200016c565b5b620002ab8482856200023c565b509392505050565b600082601f830112620002cb57620002ca62000167565b5b8151620002dd84826020860162000268565b91505092915050565b6000819050919050565b620002fb81620002e6565b81146200030757600080fd5b50565b6000815190506200031b81620002f0565b92915050565b600080600080600060a0868803121562000340576200033f620000f8565b5b6000620003508882890162000150565b955050602086015167ffffffffffffffff811115620003745762000373620000fd565b5b6200038288828901620002b3565b9450506040620003958882890162000150565b9350506060620003a8888289016200030a565b925050608086015167ffffffffffffffff811115620003cc57620003cb620000fd565b5b620003da88828901620002b3565b9150509295509295909350565b600081519050919050565b7f4e487b7100000000000000000000000000000000000000000000000000000000600052602260045260246000fd5b600060028204905060018216806200043a57607f821691505b60208210810362000450576200044f620003f2565b5b50919050565b60008190508160005260206000209050919050565b60006020601f8301049050919050565b600082821b905092915050565b600060088302620004ba7fffffffffffffffffffffffffffffffffffffffffffffffffffffffffffffffff826200047b565b620004c686836200047b565b95508019841693508086168417925050509392505050565b6000819050919050565b60006200050962000503620004fd84620002e6565b620004de565b620002e6565b9050919050565b6000819050919050565b6200052583620004e8565b6200053d620005348262000510565b84845462000488565b825550505050565b600090565b6200055462000545565b620005618184846200051a565b505050565b5b8181101562000589576200057d6000826200054a565b60018101905062000567565b5050565b601f821115620005d857620005a28162000456565b620005ad846200046b565b81016020851015620005bd578190505b620005d5620005cc856200046b565b83018262000566565b50505b505050565b600082821c905092915050565b6000620005fd60001984600802620005dd565b1980831691505092915050565b6000620006188383620005ea565b9150826002028217905092915050565b6200063382620003e7565b67ffffffffffffffff8111156200064f576200064e62000182565b5b6200065b825462000421565b620006688282856200058d565b600060209050601f831160018114620006a057600084156200068b578287015190505b6200069785826200060a565b86555062000707565b601f198416620006b08662000456565b60005b82811015620006da57848901518255600182019150602085019450602081019050620006b3565b86831015620006fa5784890151620006f6601f891682620005ea565b8355505b6001600288020188555050505b505050505050565b611376806200071f6000396000f3fe6080604052600436106100e85760003560e01c80637284e4161161008a578063cba7fbf811610059578063cba7fbf8146102ec578063d20cf0e814610329578063de2ed89314610368578063ed88c68e14610393576100e8565b80637284e41614610240578063775a25e31461026b578063b97a7d2414610296578063c24a0f8b146102c1576100e8565b80633f85b887116100c65780633f85b88714610182578063430fe9c1146101ad578063481c6a75146101d85780634abfa16314610203576100e8565b806306fdde03146100ed5780632636b945146101185780633d31bdb414610143575b600080fd5b3480156100f957600080fd5b5061010261039d565b60405161010f9190610d31565b60405180910390f35b34801561012457600080fd5b5061012d61042b565b60405161013a9190610d6c565b60405180910390f35b34801561014f57600080fd5b5061016a60048036038101906101659190610e16565b610431565b60405161017993929190610e65565b60405180910390f35b34801561018e57600080fd5b50610197610498565b6040516101a49190610d6c565b60405180910390f35b3480156101b957600080fd5b506101c26104a5565b6040516101cf9190610d31565b60405180910390f35b3480156101e457600080fd5b506101ed610537565b6040516101fa9190610e9c565b60405180910390f35b34801561020f57600080fd5b5061022a60048036038101906102259190610eb7565b61055b565b6040516102379190610e9c565b60405180910390f35b34801561024c57600080fd5b5061025561059a565b6040516102629190610e9c565b60405180910390f35b34801561027757600080fd5b506102806105c0565b60405161028d9190610d6c565b60405180910390f35b3480156102a257600080fd5b506102ab6105ca565b6040516102b89190610d6c565b60405180910390f35b3480156102cd57600080fd5b506102d66105d4565b6040516102e39190610d31565b60405180910390f35b3480156102f857600080fd5b50610313600480360381019061030e9190610eb7565b610662565b6040516103209190610e9c565b60405180910390f35b34801561033557600080fd5b50610350600480360381019061034b9190610ee4565b6106f1565b60405161035f9392919061108d565b60405180910390f35b34801561037457600080fd5b5061037d610a19565b60405161038a9190610d6c565b60405180910390f35b61039b610a1f565b005b600180546103aa90611108565b80601f01602080910402602001604051908101604052809291908181526020018280546103d690611108565b80156104235780601f106103f857610100808354040283529160200191610423565b820191906000526020600020905b81548152906001019060200180831161040657829003601f168201915b505050505081565b60035481565b6006602052816000526040600020818154811061044d57600080fd5b9060005260206000209060030201600091509150508060000160009054906101000a900473ffffffffffffffffffffffffffffffffffffffff16908060010154908060020154905083565b6000600780549050905090565b6060600480546104b490611108565b80601f01602080910402602001604051908101604052809291908181526020018280546104e090611108565b801561052d5780601f106105025761010080835404028352916020019161052d565b820191906000526020600020905b81548152906001019060200180831161051057829003601f168201915b5050505050905090565b60008054906101000a900473ffffffffffffffffffffffffffffffffffffffff1681565b6007818154811061056b57600080fd5b906000526020600020016000915054906101000a900473ffffffffffffffffffffffffffffffffffffffff1681565b600260009054906101000a900473ffffffffffffffffffffffffffffffffffffffff1681565b6000600554905090565b6000600354905090565b600480546105e190611108565b80601f016020809104026020016040519081016040528092919081815260200182805461060d90611108565b801561065a5780601f1061062f5761010080835404028352916020019161065a565b820191906000526020600020905b81548152906001019060200180831161063d57829003601f168201915b505050505081565b600060078054905082106106ab576040517f08c379a00000000000000000000000000000000000000000000000000000000081526004016106a290611185565b60405180910390fd5b600782815481106106bf576106be6111a5565b5b9060005260206000200160009054906101000a900473ffffffffffffffffffffffffffffffffffffffff169050919050565b60608060606000600660008673ffffffffffffffffffffffffffffffffffffffff1673ffffffffffffffffffffffffffffffffffffffff16815260200190815260200160002080549050905060008167ffffffffffffffff811115610759576107586111d4565b5b6040519080825280602002602001820160405280156107875781602001602082028036833780820191505090505b50905060008267ffffffffffffffff8111156107a6576107a56111d4565b5b6040519080825280602002602001820160405280156107d45781602001602082028036833780820191505090505b50905060008367ffffffffffffffff8111156107f3576107f26111d4565b5b6040519080825280602002602001820160405280156108215781602001602082028036833780820191505090505b50905060005b84811015610a0457600660008a73ffffffffffffffffffffffffffffffffffffffff1673ffffffffffffffffffffffffffffffffffffffff16815260200190815260200160002081815481106108805761087f6111a5565b5b906000526020600020906003020160000160009054906101000a900473ffffffffffffffffffffffffffffffffffffffff168482815181106108c5576108c46111a5565b5b602002602001019073ffffffffffffffffffffffffffffffffffffffff16908173ffffffffffffffffffffffffffffffffffffffff1681525050600660008a73ffffffffffffffffffffffffffffffffffffffff1673ffffffffffffffffffffffffffffffffffffffff16815260200190815260200160002081815481106109505761094f6111a5565b5b906000526020600020906003020160020154838281518110610975576109746111a5565b5b602002602001018181525050600260009054906101000a900473ffffffffffffffffffffffffffffffffffffffff168282815181106109b7576109b66111a5565b5b602002602001019073ffffffffffffffffffffffffffffffffffffffff16908173ffffffffffffffffffffffffffffffffffffffff168152505080806109fc90611232565b915050610827565b50828282965096509650505050509193909250565b60055481565b60003411610a62576040517f08c379a0000000000000000000000000000000000000000000000000000000008152600401610a59906112ec565b60405180910390fd5b6000600260009054906101000a900473ffffffffffffffffffffffffffffffffffffffff1690508073ffffffffffffffffffffffffffffffffffffffff166108fc349081150290604051600060405180830381858888f19350505050158015610acf573d6000803e3d6000fd5b50610ad8610c6a565b33816000019073ffffffffffffffffffffffffffffffffffffffff16908173ffffffffffffffffffffffffffffffffffffffff16815250503481602001818152505042816040018181525050600660003373ffffffffffffffffffffffffffffffffffffffff1673ffffffffffffffffffffffffffffffffffffffff16815260200190815260200160002081908060018154018082558091505060019003906000526020600020906003020160009091909190915060008201518160000160006101000a81548173ffffffffffffffffffffffffffffffffffffffff021916908373ffffffffffffffffffffffffffffffffffffffff160217905550602082015181600101556040820151816002015550506007339080600181540180825580915050600190039060005260206000200160009091909190916101000a81548173ffffffffffffffffffffffffffffffffffffffff021916908373ffffffffffffffffffffffffffffffffffffffff1602179055503460056000828254610c5f919061130c565b925050819055505050565b6040518060600160405280600073ffffffffffffffffffffffffffffffffffffffff16815260200160008152602001600081525090565b600081519050919050565b600082825260208201905092915050565b60005b83811015610cdb578082015181840152602081019050610cc0565b60008484015250505050565b6000601f19601f8301169050919050565b6000610d0382610ca1565b610d0d8185610cac565b9350610d1d818560208601610cbd565b610d2681610ce7565b840191505092915050565b60006020820190508181036000830152610d4b8184610cf8565b905092915050565b6000819050919050565b610d6681610d53565b82525050565b6000602082019050610d816000830184610d5d565b92915050565b600080fd5b600073ffffffffffffffffffffffffffffffffffffffff82169050919050565b6000610db782610d8c565b9050919050565b610dc781610dac565b8114610dd257600080fd5b50565b600081359050610de481610dbe565b92915050565b610df381610d53565b8114610dfe57600080fd5b50565b600081359050610e1081610dea565b92915050565b60008060408385031215610e2d57610e2c610d87565b5b6000610e3b85828601610dd5565b9250506020610e4c85828601610e01565b9150509250929050565b610e5f81610dac565b82525050565b6000606082019050610e7a6000830186610e56565b610e876020830185610d5d565b610e946040830184610d5d565b949350505050565b6000602082019050610eb16000830184610e56565b92915050565b600060208284031215610ecd57610ecc610d87565b5b6000610edb84828501610e01565b91505092915050565b600060208284031215610efa57610ef9610d87565b5b6000610f0884828501610dd5565b91505092915050565b600081519050919050565b600082825260208201905092915050565b6000819050602082019050919050565b610f4681610dac565b82525050565b6000610f588383610f3d565b60208301905092915050565b6000602082019050919050565b6000610f7c82610f11565b610f868185610f1c565b9350610f9183610f2d565b8060005b83811015610fc2578151610fa98882610f4c565b9750610fb483610f64565b925050600181019050610f95565b5085935050505092915050565b600081519050919050565b600082825260208201905092915050565b6000819050602082019050919050565b61100481610d53565b82525050565b60006110168383610ffb565b60208301905092915050565b6000602082019050919050565b600061103a82610fcf565b6110448185610fda565b935061104f83610feb565b8060005b83811015611080578151611067888261100a565b975061107283611022565b925050600181019050611053565b5085935050505092915050565b600060608201905081810360008301526110a78186610f71565b905081810360208301526110bb818561102f565b905081810360408301526110cf8184610f71565b9050949350505050565b7f4e487b7100000000000000000000000000000000000000000000000000000000600052602260045260246000fd5b6000600282049050600182168061112057607f821691505b602082108103611133576111326110d9565b5b50919050565b7f496e646578206f7574206f6620626f756e647300000000000000000000000000600082015250565b600061116f601383610cac565b915061117a82611139565b602082019050919050565b6000602082019050818103600083015261119e81611162565b9050919050565b7f4e487b7100000000000000000000000000000000000000000000000000000000600052603260045260246000fd5b7f4e487b7100000000000000000000000000000000000000000000000000000000600052604160045260246000fd5b7f4e487b7100000000000000000000000000000000000000000000000000000000600052601160045260246000fd5b600061123d82610d53565b91507fffffffffffffffffffffffffffffffffffffffffffffffffffffffffffffffff820361126f5761126e611203565b5b600182019050919050565b7f446f6e6174696f6e20616d6f756e74206d75737420626520677265617465722060008201527f7468616e207a65726f0000000000000000000000000000000000000000000000602082015250565b60006112d6602983610cac565b91506112e18261127a565b604082019050919050565b60006020820190508181036000830152611305816112c9565b9050919050565b600061131782610d53565b915061132283610d53565b925082820190508082111561133a57611339611203565b5b9291505056fea2646970667358221220c8d65ee47774b2cc8e90900fa2ddd9298b8f5c185b86a5adbe84a309dabeb6b064736f6c63430008130033",
  "linkReferences": {},
  "deployedLinkReferences": {}
}